:10400000805201205D570300CD0D0200E53B030007
:10401000A70A0A010042000004180FAC5065B00165
:104020000000000000000000000000000000000090
:1040300000000000886A030000000000000000008B
:104040000000000000000000FFFFFFFFFFFFFFFF78
:10405000FFFFFFFF00A00700000000000020080095
:10406000FFFFFFFFFFFFFFFF8000000000000000D8
:104070000000000000000000000000000000000040
:104080000000000000000000F07F0120F07F012010
:1040900080520120FFD703007A57030020490120F6
:0C40A0004C11002000200800000000006F
:10420000805201205D570300CD0D0200E53B030005
:10421000ED3B0300E93B0300F13B0300000000001D
:10422000000000000000000000000000FF67000028
:10423000F53B030000000000BBAE00005FD20000B1
:10424000FD3B0300FD3B0300FD3B0300FD3B030082
:10425000FD3B030025BB020055750200FD3B03003A
:10426000FD3B0300FD3B0300F9710200FD3B030031
:10427000FD3B0300FD3B0300FD3B0300FD3B030052
:10428000FD3B0300FD3B0300FD3B03008FF10000FD
:10429000FD3B0300832C0300FD3B0300FD3B0300BB
:1042A000FD3B03001178020001780200FD3B030092
:1042B000FD3B0300FD3B0300FD3B0300FB08030047
:1042C000AF080300AD080300CD040300F9080300A4
:1042D000B1080300B5080300B308030075560300D6
:1042E0002B090300FD3B0300FD3B03003DCF000015
:1042F000FD3B0300FD3B0300FD3B0300A70701005E
:10430000FD3B0300FD3B0300FD3B0300FD3B0300C1
:10431000FD3B0300FD3B0300FD3B0300FD3B0300B1
:10432000FD3B0300FD3B0300FD3B0300FD3B0300A1
:10433000FD3B0300102510B5494A494C4A4B1B6808
:10434000234207D103408B420DD0521EF6D16FF0AD
:10435000020010BD4548034202D06FF0010C201648
:104360004FF0FF3010BD002010BD70B5404D6860AB
:10437000E8680E46410702D518200870BD56F804BB
:104380000B141F02E008101D241FA86044B108216F
:104390000820FFF7CFFF0100F4D00421296070BD91
:1043A000042028600021211612C4162304D10C1009
:1043B00005BDE87040BCE77054301341F671312AF6
:1043C0004C01222A4BE568E1621A606060022626F1
:1043D00030300B2D0CFFF7ABFF05F001050100039A
:1043E00036201CFFF7A3FF0121204A11600DB10008
:1043F00021E16270BD2DE9F843184F3D68894614EC
:10440000464A200A80462D0C39620122164B0020B4
:104410003A100B1A6009E0324649464046FFF79FC2
:104420007E501F0DD1B044B144A41B4CB108F5001F
:1044300056760B7603A6EB0806B442ECD22646EA83
:10444000E70121095C10133962BDE8F283000080A6
:10445000969800060001001C000340020812100894
:10446000130C1004000120034000000080B54449F3
:104470000988444A002000F0B3FB5328A8BF52200B
:1044800002BD2DE9FE4300F072F800F070FD00F06F
:104490005EF8412200F060F800F063F8FFF7E6FFF5
:1044A0008146E0B2B04216DA3888C01C814512DB82
:1044B0006A46E1B2404600F058FD50B1BDF8000038
:1044C00000F0A6FD9DF8020000F093FD2878401C46
:1044D0002870641CE5E735E02DE9FE4300F047F85D
:1044E00000F041FD00F033F8422200F035F800F012
:1044F00038F8FFF7BBFF8146E0B2B04222DA3888D5
:10450000083081451EDB6A46E1B2404600F029FDD5
:10451000B0B1BDF8000000F07BFD9DF8020000F096
:1045200068FDBDF8040000F073FDBDF8060000F062
:104530006FFD9DF8080000F05CFD2878401C287095
:10454000641CD9E700F0E3FA0120BDE8FE830646CB
:10455000019400960C4B70474FF48051092000F0F5
:104560009BBE398809484518002000F042BD04462A
:1045700007480168074F0A6892F80580404670476F
:104580007A7F0120847601207C57030090760120F9
:104590006C7701207C7F012080B501F071FAFF2843
:1045A00005D0032803D2DFF8D817085C02BD00202D
:1045B00002BDE0B50221009101AB0022032101F010
:1045C000B9FD20B9BDF8040010B1012000E00020C1
:1045D000C0B20EBDF8B5069F002400250646092F7F
:1045E00002D300200021F4BDA4460DE0A7EB000E8D
:1045F000B6441EF8010C2D0245EA1465002110EBAB
:1046000004240CF1010C4D415FFA8CF0B842EDD35B
:104610009D4206D828BF944203D2101B63EB0501CC
:10462000F4BDA01A65EB0301F4BD10B50268DFF814
:10463000541713880B8054884C8052790A71036890
:104640001A794FF48A53CB804A71026893799A069B
:10465000DFF8342744BF4FF48B53CB808169137844
:1046600039B9C088DFF8241703F0FD030880137000
:1046700010BD43F002031370DFF81447816916225E
:10468000204601F062FF0022227010BD80B500209C
:1046900001F0BFFFFF2001F04EFA01F0C8FF00F06B
:1046A000CBFE02460121DFF8D80601F095FFDFF8C6
:1046B000D436DFF8E0265221DFF8DC0600F0D7FD23
:1046C00002F001F802F0ECF802F0AEF903F02CF978
:1046D00003F01FFE03F040FE03F0F4FEBDE80140CE
:1046E00000F081BF704780B503F0C9FF20B905F025
:1046F000D4FC08B903F094FB00F04FFCBDE8014086
:1047000000F05BBC70B5034600204FF6FF72DFF887
:104710008C4634F8305095420ED09D4209D1B3F505
:104720007C4F0ADB04EBC0056E888E4205D00D007D
:1047300003D0401C80B2ECE7104670BD10B50446B3
:10474000FFF7E0FFDFF858164FF6FF720B88904234
:1047500003D12246DFF84C1606E0DFF8401601EBE5
:10476000C0004268DFF840161846BDE8104005F06A
:1047700072BDDFF83806006800B1008A70471CB5CA
:104780000446DFF82C16087800283DD005F03AFEE4
:104790000246DFF82016022005F05DFD2068418802
:1047A0000091A2894379DFF81016022005F053FD2D
:1047B000022005F00BFD20B12068218A4088FFF718
:1047C000BDFFE07B28B1228ADFF8F015022005F05A
:1047D00042FDE07CDFF8E8150090A068A37C027839
:1047E000022005F038FD217DA289A4680123521A18
:1047F00092B22144022005F01DFEDFF8C815022008
:10480000BDE81C4005F021BD13BD10B5044621686C
:10481000487901F035F9FF281DD0DFF8AC1501EB20
:104820000010217F027B8A4215D1226840881188BE
:10483000884206D04FF6FF7399420CD1B0F5004F75
:1048400009DA2079022818BF032806D11189507986
:1048500006F048F808B9002010BDA07B00282046CB
:1048600002D006F08DF801E006F0BAF800B10120A0
:1048700010BD3EB51446227855074CBF05220322D1
:10488000934209D20092DFF84425DFF84415022054
:1048900005F0DBFC00203EBD089D069A28602971CA
:1048A000EA80AC60AB81207800F00100A873217829
:1048B000890801F00101E973207801212975C008F8
:1048C00000F001006875E87B30B11A46204600F020
:1048D000FDFB297D891C297507992882287D421CAA
:1048E0002A75205C531C2B75A874D2B2A05CA961F8
:1048F000E87406F07EFB287701203EBD2DE9F14FDC
:1049000084B00F469246DFF8CC549B460E9EDDF8ED
:104910003C802846DFF8C014202206F031FC0295C6
:104920000498CDF8048000965B4652463946002430
:10493000FFF79FFFDFF87494002869D0C9F8005092
:10494000A87CDFF8981408702846FFF718FF28465F
:10495000FFF76BFE284606F032FC30BBB8F1000FC3
:1049600025D1042F18BF052F03D0022F18BF032F06
:1049700001D1012200E00022E9882868019101218B
:10498000438800930388E87C00F007F998B1286811
:10499000817988060FD4DFF8484401212170002274
:1049A000284600F0BAF800202070012430E098F882
:1049B000140081072CD528684179FF2924D10026CD
:1049C000DFF8C08300F038FDF1B2814220D2F0B2AE
:1049D00001F058F80746F0B200F032FD90B12868B7
:1049E0002A8A4188384600F097FF58B12846FFF7D9
:1049F0001CFE2868477188F804702846FFF705FFF9
:104A000000B10124761CDDE72846FFF7FEFE0446D0
:104A100000F0D8FA16220021DFF8740301F0DCFD63
:104A20000020C9F80000204605B0BDE8F08FDFF88F
:104A3000B4130878401C0870FFE700F07F0070474F
:104A4000DFF844130A78002814BF42F0010202F094
:104A5000FE020A707047DFF890130870704780B14B
:104A6000DFF884130978012904D1018841F040015D
:104A700001807047022904D102884FF6BF710A40B5
:104A80000280704778B1DFF864130A78012A04D1F4
:104A9000DFF85C2313780B7001E0022A03D1017860
:104AA00041F0100101707047FEB5B74C2178CA077C
:104AB00001D50020FEBDC94A1378B74A15786E07A4
:104AC0004CBFD3705370B34B1D88890708D5294656
:104AD000AF4806F0C7FD217801F0FD012170FEBD51
:104AE000AA4B1C884FF6FC77A649BC4208DA009214
:104AF00001900A462B462146002006F099FFFEBD94
:104B0000009013462A46204606F061FFFEBD0020B5
:104B1000CAE70146A5480068002270B5044620791E
:104B20000E461546002818BF01280BD1A068017851
:104B3000CA0601D5300005D0A07B002804BFE07C68
:104B40000B2801D1002070BD0021924A1180607DA8
:104B5000E17B00280CBF0820002011B900F049FAC1
:104B600006E040F0040000F044FA208A00F050FA19
:104B7000A07C00F03EFA0B2000F03BFAE07C00F055
:104B800038FA304600F035FA2046FFF74EFD284649
:104B9000BDE8704088E70022BFE770B51D46954B21
:104BA0001C788F4E012C01D0337813B10020307067
:104BB00070BD0B0002D10AB1002070BD002C1EBFD9
:104BC000049C4FF657439C4206D003460A462146B2
:104BD000284600F073F900B1012070BD000000000C
:104BE00038B5D28852240346950608464FF6FD7123
:104BF00048BF4924550548BF083C150548BF083C37
:104C0000120448BFA41E032B0ED8DFE803F00902EC
:104C1000060BC0B207F094FA02E0C0B207F0CAFC7B
:104C2000014601E0641EE4B2084600F062F9241A6D
:104C3000E0B232BD4254120A084442707047084440
:104C40000270110A130C120E41708370C27070470B
:104C500070B50C000546164608BF002003D0217829
:104C6000FF2902D1FF20287070BD204600F050FAC5
:104C7000864288BF06463246611C681C01F065FC0E
:104C80002E7070BD70B505460C00164603D100208D
:104C90006870297070BD2078FF2804BF6078FF28F5
:104CA00002D12870687070BD204600F036FA864246
:104CB00088BF06463246A11CA81C01F046FC2E7097
:104CC000360A6E7070BD2DE9F041541E0BB3042AF4
:104CD00046DC0023002698465FFA88F5954225D2E7
:104CE000651B002814BF10F805C04FF0000C571EBC
:104CF0004D5DA7EB0807FF000CFA07FC05FA07F764
:104D00004CEA03033E4308F10108E5E7AE4224DB29
:104D10005B1CDDB2954223D2651B00280CBF002628
:104D2000465D4D5DB542F1DA01201AE0042A10DA41
:104D3000D5000120D2006D1E00FA02F2524243FA61
:104D400005F1CC0746FA05F048BF1343C00748BF3A
:104D500016439E42E8DBB34202DA4FF0FF3000E038
:104D60000020BDE8F0810021234A01E0891CC9B27E
:104D7000535C8342FAD3501840787047000000001B
:104D80004877012084760120C97F01207A7F0120A5
:104D9000707701207C7F01209076012054B50300BC
:104DA000807F0120BCB40300D4B403006C770120E1
:104DB000285A0120DCB40300E4B4030004B5030066
:104DC00010B50300AAD40300287401204CB50300D9
:104DD00030B503004C770120A4B50300485A0120E8
:104DE000C57F0120495A0120C67F0120C77F0120CD
:104DF000C87F0120475A0120C4B50300283808287D
:104E00008041C00F704710B500F009F8FF2801D1AC
:104E1000A32010BD002104F83010002010BD04466E
:104E2000084600F02DBE38B500F00BF8FF2801D180
:104E3000A32032BD294604EBC000BDE8344001F098
:104E400072BC04460846154600F01ABE40B11C2844
:104E50000BD01D280CD01E2818BF1F2805D009E034
:104E60000B39102906D2002070471B29FBDB01E01B
:104E70000929F8DB8A20704710F0E00011D0802863
:104E800006D0A02806D0C02806D0E02806D007E02B
:104E90001C2070471D2070471E2070471F20704740
:104EA000FF20704700F01F007047704770470120D7
:104EB00070470120704701207047704700207047FD
:104EC0000020704700207047002070470020704786
:104ED000002070470120704701207047B5207047BF
:104EE0000020704700207047002070470020704766
:104EF00070470020704700207047704700207047BF
:104F000084207047704770477047704770477047FC
:104F10007047704700207047704770477047002007
:104F20007047704707F004BD0320704700207047AA
:104F3000034801680878012808BF02207047000074
:104F4000E4760120002070474FF6FE720121C281F5
:104F50008181016100220270012070477047704713
:104F600070470020704700207047002070470020E5
:104F7000704770470020704770470020704700203E
:104F800070470020704700207047002070470020C5
:104F9000704700207047002070477047B520704769
:104FA000002070470020704770470020704770470E
:104FB00070477047B52070477047704770470020B2
:104FC0007047704780B500204B49087007F05BFDC3
:104FD0004A4A108052220021494801F0FDFA00207F
:104FE000484908800C2200214748BDE8084001F0EC
:104FF000F3BA10B543490A88522A07DA404CA05444
:10500000521C0A8092B2A018401E10BD002010BD94
:1050100038B50546C0B2FFF7ECFF0446280AFFF793
:10502000E8FF002C18BF002801D0204632BD002028
:1050300032BDF8B50746C0B2FFF7DBFF06463804BD
:10504000000EFFF7D6FF05463802000EFFF7D1FF2E
:105050000446380EFFF7CDFF002E18BF002D05D0F7
:10506000002C18BF002801D03046F2BD0020F2BD50
:10507000F8B5244D2B880C462646F718522F0CDA2B
:105080001F4F01462246F81801F05FFA2B88E418FA
:105090002C80A4B2A41B3819F2BD0020F2BD30B59B
:1050A00004461D4600205B189A4207DA30BD5218AC
:1050B000224412F8013C6D1E03EB0020EAB2002AE4
:1050C000F5D130BD0423EAE70323E8E780B50223E6
:1050D000FFF7E5FF80B202BD03460C48914200D3C2
:1050E000704710B55C5CFF2C08BF00246418641C7A
:1050F000A242A8BF581810BDC97F01207A7F0120A5
:10510000907601207C7F0120847601207E7F012023
:105110000078FF2808BF0020704780B502220021D8
:10512000FFF7D4FF4FF6FF72904208BF002002BD88
:105130002DE9F24F022940F39580190005D0BDF802
:1051400000100529F7DB42F00402824601268AF8A6
:105150000020180005D08AF801301B0A8AF80230B6
:1051600003260A9CFFF763FC0AF80600761CB0B21F
:105170000AF80040761C4FF0000BDDF8309007E095
:10518000BAB24146504401F0E0F9BE190BF1010BEF
:105190000B985FFA8BF1405C002865D00025002455
:1051A000A046732834DC4C2859F8048B1CBF5328C4
:1051B000622811D159F8047B4C2806D1BDB24FF6B4
:1051C000FF70854236D0022434E0532832D1FDB23C
:1051D000FF2D2FD001242DE06C2804D14046FFF78D
:1051E0009CFF871C26E0732804D14046FFF790FF00
:1051F000471C1FE0A0F130010A2938BFA0F1300799
:1052000018D3A0F1410107292CD2A0F1370711E0F2
:105210000027752808BF01240AD0762808BF022479
:1052200006D0782808BF032402D077281AD1042496
:1052300059F8045BBDF80010B2B2B8B28218A218D7
:10524000914205DA0EE00AF80050761C2D0A641E21
:10525000E1B2B0B20029F6D1B9B2002996D0B8F1C6
:10526000000F8DD1002000E0B0B2BDE8F28F10B584
:105270004A4C20604A4801804A490A604A4A136001
:1052800010BD7FB50C46089909AD009302951346F1
:10529000019100F017F808E07FB50C4608A90092CC
:1052A000029100F00FF801930023FFF741FF3D4901
:1052B0000A683D4B108019684FF48A524C80CA80AE
:1052C00004B070BD0246364D344E298830687047B0
:1052D00038B50346334C314825680268324829887E
:1052E000006801B0BDE8304006F0CEBB0020EFE71B
:1052F0007FB500F028F806F018FB04B070BD00235D
:10530000F6E710B52548274B02681C682648006858
:105310002188BDE8104006F021BB7CB501921F4AF0
:105320001468204D2E6800941F4C3388226806F0C4
:105330007FFB76BD0022F0E77FB500F004F806F0B1
:105340005BFB04B070BD174C0091256802931349B4
:1053500001920B68144E2A88316870470023EBE7EE
:10536000F8B50E4D2E6884B00A9C03960D4F3E682A
:10537000358801940C4C266802957588009506F0D6
:10538000B7FB05B0F0BD084800687047064A1368CF
:10539000187110684171704700000000B875012055
:1053A000787F0120BC750120C0750120DFF8DC1872
:1053B000F0B50A6888B0DFF8D81803A80260D1E910
:1053C0000027DFF8D018DFF8D04804A8D4E9005649
:1053D000C0E900270A6801A806AB0260C3E90056CD
:1053E0000320DFF8B81802AB002408701C6000949A
:1053F0000021DFF8AC0806AEDFF8A82803AC02EB0A
:105400000112655C04AC157036F81130538034F825
:10541000113002AC9380655C01AB95715C5C00EB74
:10542000C40595601DF801400125491C147355738E
:105430000229E1DD08B0F0BDDFF8600800787047B0
:10544000DFF8601801EB0010407B00F001007047AE
:10545000412818BF422803D0432818BF442801D14F
:105460000120704700207047412818BF422801D111
:105470000120704700207047432818BF442801D1FD
:105480000120704700207047F8B515461E46069A61
:10549000079B044600F055FA60B1042100F057FD67
:1054A000070007D0204601F0B9F8324629462046C9
:1054B000B84794E0F1BD2DE9FC47140081468846C9
:1054C0001F461CBF0A9D002D1FD0F7B128780C9BEA
:1054D0000107618820794CBF4022802200F031FA18
:1054E00098B1082100F033FD824670B120790B9EFF
:1054F00001F094F8009501963B4622464146484605
:10550000D047BDE8F34701F092B8BDE8F387F8B59E
:10551000069C16461A460546234600F012FAD0B1FC
:1055200021000BD1022100F012FD040013D0284607
:1055300001F074F831462846A0470BE0102100F036
:1055400006FD070007D0284601F068F822463146DC
:105550002846B84743E0F1BD2DE9F843089C904642
:105560001A460646234600F0ECF908B9862016E0F4
:1055700000259CB9202100F0EAFC814670B10B9F08
:105580000A9C099D304601F049F8009723462A46B7
:1055900041463046C847054601F049F82846BDE86F
:1055A000F283F8B504462078A568002601F036F8A5
:1055B00011E0F1B214222868514347183988207845
:1055C000FFF77BFC0121384600F0C1FC01001CBF45
:1055D00020788847761C2979F0B28842E9D3BDE863
:1055E000F14001F024B838B50024DFF8B0560AE0E5
:1055F000DFF8440A210600EB1150427BD10748BF77
:10560000FFF7CFFF641C2978E0B28842F0D331BDA8
:105610005CB585B00A9C00268DF80800ADF80A102C
:105620008DF80C30ADF80E200196ADF810400096C4
:105630000023002201A902A800F083F8019807B016
:1056400050BD7CB5069D1C4696782B0008BFD378CC
:10565000412E18BF422E06D0432E09D19A1E92B277
:10566000FFF710FB16E05A1ED2B2FFF7F1FA11E075
:10567000442EF3D034B92C0004D0D278954201D214
:10568000892076BD00291A4602D100F0A5FF01E06D
:1056900000F05BFF002076BD10B5002301E0001D87
:1056A0005B1C9CB28C4204D204889442F7D140889F
:1056B00010BD002010BDDFF88419401A0C2290FBA9
:1056C000F2F20021DFF8780910E00288B2F57C4F91
:1056D000A8BF00F002B80846EDE7DFF86819401AE5
:1056E000142290FBF2F20021DFF85C0992B2D3E7BA
:1056F00010B50C460188628891420DD1037B227956
:10570000134209D0B1F57C4F04DBFFF7E6FF218996
:10571000884201D1012010BD002010BD10B51446F3
:105720000A88E3889A420AD10288B2F57C4F04DAEB
:10573000FFF7CBFF2189884201D1012010BD002055
:1057400010BD2DE9F74F82B004469A460025002788
:1057500003E0C88845197F1CFFB2DFF840150A78BE
:10576000974280F0A380DFF83C0500EB0710237818
:10577000027881689A42ECD10091407BC107EAD55A
:105780004FF0000804E0B9F80A00451908F10108D3
:1057900000995FFA88F00A799042DCD20A685FFAD1
:1057A00088F114204843214602EB00094846FFF7E0
:1057B0009FFF0028E7D04FF0000B07E030790BF196
:1057C000010B10F0300F04BFF0784519B9F808103C
:1057D0001FFA8BF08842D9D21FFA8BF20C21D9F82C
:1057E00004004A438618224631464846FFF796FF92
:1057F0000028E3D003982746344600B1046020799E
:10580000810610D5DFF83408002105E002799306FF
:1058100044BFC27851180C30A042F7D3DFF82C08EF
:1058200089B2461803E0DFF82818ADB24E19DDF84A
:105830003880049D4046B8F1000F1BD001952146E9
:105840004846FFF742FF0246238879883878DFF818
:1058500004B8FFF730FBF0B12079C1061DD5214611
:105860004846FFF732FF009503467988387822468C
:10587000D8471CE0DDB1214648460196FFF725FFD9
:1058800002462388798838782E46DFF8CCB7FFF7B0
:1058900010FB0028E0D17E2009E00199CDF800A09E
:1058A000434622463046FFF7CCFE00E0862005B096
:1058B000BDE8F08F2DE9F843044688461646994620
:1058C00000252179E8B2884221D2EAB21423206867
:1058D0005A4387183888404517D131000AD0802EA6
:1058E00003D1397B0A0605D40FE0402E0DD1397B58
:1058F0004A060AD5B0F57C4F0CDB3846FFF7EDFEC3
:10590000484518BF5FEA090004D06D1CD9E70020A4
:10591000BDE8F2833846FBE7134680B507E013463F
:1059200080B5402204E0134680B5802200E00022CA
:1059300000F007F800B1012002BD80B5002340222D
:10594000F6E770B50C4615461E4600F099F8FF289C
:1059500001D1002070BD06E070B50C4615461E460C
:10596000002100F035F82146DFF8CC4604EB0010AA
:1059700033462A468068BDE870409BE713464022C4
:1059800001E00022FAE72DE9F84F82468B46904667
:1059900099460026FFF7D5FF08B9FF2016E000273B
:1059A000DFF80043DFF8F4522978F8B288420CD2CD
:1059B0000001205C504508D04B4642465946FFF74F
:1059C000CBFF00B1761C7F1CEEE7F0B2BDE8F28F92
:1059D00070B50022DFF8CC32DFF8C0522E78D4B296
:1059E000B4420BD224011D5D854205D10D0007D0C4
:1059F0001C44647BE50703D4521CEDE7FF2070BD17
:105A0000D0B270BD80B50021FFF7E2FFFF2801D1C1
:105A1000002002BD00F061F8407B00F0010002BDF3
:105A200070B50E4604460021FFF7D2FFFF2801D1D2
:105A3000002070BDDFF8001601EB00153200687B16
:105A400000F0010114BF40F0010000206873B14272
:105A500014D076B12846FFF7A4FD0FE014220068A9
:105A60005143761C0844027B01882046D20900F08D
:105A7000B9FEA868F1B202799142EFD3012070BD5E
:105A80000121A5E7DFF8B0150001085C7047F8B503
:105A90000C46FFF7F5FF01460020FF291FBFDFF886
:105AA000982502EB01118968002915D000221427DE
:105AB0000D79D3B2AB420ED2D6B20B687E43451CF1
:105AC00033441B7B260001D11B0600E05E0648BF65
:105AD0002846521CECE7C0B2F2BDDFF85C1501EBC2
:105AE00000107047F8B50C461546FFF7C9FF014690
:105AF0000022FF291DD000234FF0140C01E0521C9E
:105B00005B1CDFF8340500EB0116DFB2B0680679E4
:105B1000B7420ED200680CFB07F73844067B15B17C
:105B2000760602D4ECE73706EAD5D6B2A642E6D12D
:105B3000F2BD0020F2BD002109E010B504460121AC
:105B400000F005F82046BDE8104005F037BB2DE910
:105B5000F14F88B0894605F04CFA50490A78002385
:105B6000069005928DF80430DFF8CCA40AE00AEB29
:105B70000010017B0698814214D09DF80400401C5F
:105B80008DF804009DF804000599884258DA9DF8C4
:105B90002020FF2AEBD01046FFF772FF8DF804009B
:105BA000FF2854D0002756E00328ACBFD6F808B031
:105BB00006F1080B0120009000235A46002102A89C
:105BC000FFF7BFFD5FEA090007D0BDF80A201AF809
:105BD00008103346584600F002F9641C2989A0B227
:105BE000884237D2A2B20C2168684A4386183379BA
:105BF000D906F2D41AF808208DF808202988ADF8C3
:105C00000A103079410628464CBF802140218DF88A
:105C10000C103188ADF80E103146FFF756FDADF887
:105C200010003179F0784A07BED5D6F808B00328BD
:105C3000C0DBDBF800B0BDE79DF82000FF289CD05A
:105C4000B9F1000F04BF9DF8200000F02DF809B055
:105C5000BDE8F08F7F1C9DF80400F9B24FEA0018F0
:105C60000AF1080050F8080002799142E4D2016874
:105C7000FBB214204343CD182A8940F22D118A42E9
:105C8000A8BF07F081F90024A8E70000DC85030025
:105C9000E8850300F0850300E0850300B37F012061
:105CA000608C0300287401207CB5044605F0A1F93E
:105CB0000546012000F0C8FC44F20306012C03D085
:105CC000FF2C08BFA84227D101237F22212100F009
:105CD00083F800F078F800F07BF801237F2222217E
:105CE00000F07AF83020009001AB324600F070F8F6
:105CF00001237F22232100F06FF8202000F064F8B8
:105D0000082100F066F801237F22242100F064F8C6
:105D100000F052F800F05DF8022000F095FC022C33
:105D200003D0FF2C08BFA84240D101237F222521A8
:105D300000F052F800F047F8062100F03AF801238D
:105D40007F22262100F048F83020009001AB324637
:105D5000062100F02EF801237F22272100F03CF8D5
:105D6000202000F031F8082100F023F801237F22E1
:105D7000282100F031F800F01FF800F01AF8022393
:105D80007F22292100F028F82120009001AB072272
:105D900000F00DF802237F222A2100F01DF82120B7
:105DA000009001AB44F2100200F001F873BD4FF413
:105DB0004071022000F091B92020009001AB4FF417
:105DC0008042082170471020009001AB00227047EC
:105DD0000621012000F081B901A807F09CB92DE946
:105DE000FC4104461D4628790E461746830740F1BC
:105DF000A58002220021684600F0EEFB04B96C4643
:105E000044F20308012E3AD1062F1AD1288850B93E
:105E100000F09AF838B92879410604D400F090F8D7
:105E2000212007F0A3F9288840450BD100F08CF819
:105E3000002807D1287941061CD400F081F82220DF
:105E40007AE0082F7AD1288850B900F07DF838B967
:105E50002879410604D400F073F8232007F086F96E
:105E60002888B0F5804F69D100F06EF8002865D120
:105E70002879410662D400F063F824205CE0022E09
:105E80005CD1062F1AD1288850B900F05DF838B9D6
:105E90002879410604D400F053F8252007F066F96C
:105EA000288840454AD100F04FF8002846D128798B
:105EB000410643D400F044F826203DE0082F1AD1D3
:105EC000288850B900F040F838B92879410604D440
:105ED00000F036F8272007F049F92888B0F5804F00
:105EE0002CD100F031F848BB2879410626D400F0C7
:105EF00027F8282020E0B7F5407F1FD12888072801
:105F00000BD100F021F840B92879410605D40223CD
:105F100022467F21292007F029F9288844F2100120
:105F200088420BD100F010F840B92879410605D419
:105F3000022322467F212A2007F018F9BDE8F381C9
:105F4000012322467F2170472846FFF7B4BB30B5B6
:105F5000047B012200230C4205D1002030BD1442F5
:105F600018BF5B1C5200D5B28D42F8D30069DBB27A
:105F700050F8230030BD3949401A8003020C00213B
:105F80003748FFF789BB2DE9FE4F002700284FF067
:105F90000108487D06D008B9022407E0012804D191
:105FA000012403E008B9082400E004240E980C9DA5
:105FB000B9460D9EDDF83CB08A46ADF8002001934D
:105FC000ADF830508DF83800244800EB8905298859
:105FD000BDF80000814224D1E978214221D0A9787E
:105FE0009DF8380081421CD3E9789AF80F00CA0660
:105FF00008D5B0B12846FFF7BEFFBAF810108142AD
:1060000001D00EE068B9BB4513D0BDF8300087421F
:106010000FDAA9780198C15532887F1CBFB2521C93
:10602000328009F10109B9F14B0FCDDB4046BDE8E3
:10603000FE8F4FF00008F9E7287401205C87030009
:106040007C8C0300348B0300788C0300F8740120EF
:1060500058740120D94E0000D54E00002C86030054
:10606000588703002DE9F84785B0109D0F9F0E9CBF
:106070000295019706468A46904699460094FEF797
:1060800016FF010003D0022803D002D310E0012044
:106090000EE00CBF01200020002104910390029526
:1060A000019700944B4642465146304600F07AF93B
:1060B00006B0BDE8F087F0B585B00A9D0B9C0026C0
:1060C00001270496039702940195009617E078B58E
:1060D00085B000F00BF8802304E078B585B000F0BF
:1060E00005F8402300F05EF906B070BD0A9C00255B
:1060F000012601930495039602940095704700F0E1
:1061000051F905B0F0BDF0B5012785B004970A9D9F
:106110000B9E0C9C00270397029401960095EEE7D6
:106120007FB5099C089D0A9E029400240396019560
:10613000009410E038B584B000F006F84023FFE783
:1061400000F0E2F905B030BD089C002501930395ED
:1061500002940095704700F0D7F904B070BD2DE9A6
:10616000F84F84B0DDF8389090461C4605468A46C4
:106170004B4622460026ADF80060FFF7E2FBB3462F
:1061800007008DF80450ADF806A08DF80840ADF872
:106190000A80ADF80C904FD001A9FFF7A9FA0028AA
:1061A0004AD0ADF802800024DDF83C90DDF840A034
:1061B000BDF8008015E0B1B249450FD2FEF728FFC7
:1061C000A878FEF716FF5FEA0A0006D02879C10713
:1061D00054BF05200720FEF70CFF761C08F10108CC
:1061E000641C3989A0B288421ED2A2B20C21786800
:1061F0004A433B888518B3F57C4F09DA288801AA01
:106200002946ADF80A003846FFF788FA0028E7D09B
:106210002888BDF802108842CDD20BF1010BDDE7D2
:10622000002005B0BDE8F08FB6B21FFA8BF006442F
:106230001FFA88F08642F3D10120F2E72DE9F847F2
:1062400095B04FF00009DFF850A101E009F1010914
:10625000FFF7F2F85FFA89F1814236D2002738E081
:10626000A078FFF709F9D0B104A8FEF756FF16E0B1
:10627000002103914122029204A9019100902288F9
:1062800029881AF8080000F03FF9862807D0A0787E
:10629000FFF7EAF80028E3D004A8FEF739FF761CE0
:1062A0002989B0B2884213D2B2B20C2168684A433D
:1062B000841806F069FE21462846FFF706FA217980
:1062C0004A064CBF80234023D2E716B0BDE8F087D2
:1062D0007F1C4FEA09604FEA10580AF1080050F895
:1062E0000800F9B202799142B0D20168FBB21420E1
:1062F00043430026CD18D3E7F8B596B01D9C15464C
:10630000042C3FDD04AE039641271C9A029705AE8C
:10631000019600922A4600F0F7F8060034D19DF865
:106320001000412818BF422804D105A8FEF7F0FE4E
:10633000461C0BE0432818BF442804D105A8FEF7EB
:10634000ECFE861C02E006F06FFF0646F6B2301D3A
:10635000844217DB2846FEF75BFE0020FEF749FE6D
:106360009DF810000D4CFEF744FE2088311852298C
:1063700008DA0B4B324605A9184400F0E6F82088ED
:106380003618268017B0F0BD2846FEF741FE30468D
:10639000FEF72FFEF6E70000287401207C7F012025
:1063A000907601202DE9F84F88B0129C0546894669
:1063B00092469846002004908DF81450ADF816903F
:1063C0008DF81880ADF81AA0ADF81C40009000239D
:1063D000002204A905A8FFF7B4F9049808B986209B
:1063E00082E0159860B904999DF850008A7890422F
:1063F00018BF8D2078D10979C80758BF882073D578
:106400000498139E0179480726D504998868416845
:106410000498029181688868049901908878FEF751
:10642000EDFC834604985B46C1788DF80010032983
:106430000A4631462ADA02A8FEF745FC9DF80020FC
:1064400007465B46314601A8FEF73DFC012F1CBF05
:106450004FF0FF31884228D01698002843D100F031
:1064600046F8FEF78AFD01003ED100F040F8FFF744
:1064700073F8010038D1012000900023324600213A
:1064800005A8FFF75EF9010011D02DE00298FEF794
:106490001AFC012809D09DF8002001985B4631467E
:1064A000FEF711FC10F1010FD6D187201CE0049BF0
:1064B0004A4629463046FFF792FC02969DF8500066
:1064C00000944346019052464946284601F0C0FCDC
:1064D00000F00DF8FEF750FD009443465246494641
:1064E0002846FFF714F8002009B0BDE8F08F0396A6
:1064F000049843465246C1789DF85000029100949A
:106500000190494628467047F0B585B01C460A9E62
:106510000B9D0C9B002701978DF80800ADF80A1021
:106520008DF80C40ADF80E20ADF8106000972A46AB
:1065300001A902A8FFF705F9010004D10D9911B1D5
:10654000019A93780B7005B0F0BD70B5814224D2EA
:1065500010441144401E491E10E011F80139121F69
:1065600000F8013911F8014900F8014911F8015901
:1065700000F8015911F8016900F8016993B2042B80
:10658000EBDA93B2002B1EBF11F8013900F8013984
:10659000521EF6D170BD00F00DF893B2042BFADA5A
:1065A00093B2002B1EBF11F8013B00F8013B521EB5
:1065B000F6D170BD11F8013B121F00F8013B11F834
:1065C000014B00F8014B11F8015B00F8015B11F879
:1065D000016B00F8016B7047130003D00A4619469F
:1065E00006F034BE704710B5034600E0521E90B26C
:1065F00018B100F003F8F9D0001B10BD13F8010B1F
:1066000011F8014BA04270470C480D49086000206A
:10661000704700B1702070470020704780B500F0CF
:1066200013F8FF2801D1A32002BD002002BD0020E5
:106630007047704700BF0348007870478CD4030050
:10664000E47601202874012080B5FFF719FAFF28AD
:1066500018BF002002BD00210170704700F071B822
:1066600070B5044616460D463046FFF7D7FF0020AA
:1066700020703046A847BDE87040FFF7D8BF012220
:1066800047494848ECE7012247494848E8E70122E2
:1066900047494848E4E7022241494748E0E70222E7
:1066A00041494648DCE7022241494548D8E70122F2
:1066B00044494548D4E7022242494448D0E7F222FF
:1066C00040494348CCE780B5012006F0DBFE414855
:1066D00006F06CFE4049087001BD80B506F0E6FE8C
:1066E000012805D03C480078BDE8024006F049BECC
:1066F00001BDF0B5002400E0641C384D2E88E3B2E3
:10670000B3420ED2E7B20C256F43354B3B441E78A3
:10671000864201BF5D888D421E799642ECD11846B3
:10672000F0BD0020F0BD80B519B906F0ABFD00202A
:1067300002BDB1F1004F02D206F0AEFDF7E7022034
:1067400002BDB1F5000F3CBF0902FFF7ECBF02200C
:10675000704770B505461E46FFF7CBFF04000ED00C
:106760002846FFF74FF950B1A0683146FFF7DBFF2D
:1067700028B904990598A0716171002070BD0220AC
:1067800070BD1CB5049C0093134601940022FFF7D2
:10679000E0FF16BD80B500230093FFF7F2FF02BDB6
:1067A000AF97020090730120039C020098730120B0
:1067B00019A00200A0730120A8730120B07301206A
:1067C000B8730120F1980200C0730120C873012042
:1067D000D073012098800300B17F0120F859012077
:1067E0000456012080B5FFF784FF20B180680021A6
:1067F0000170002002BD022002BD0022F2E7FEE788
:1068000080B57949022003F020FDFF20FFF795F9BC
:10681000FF2004F068F8FF2007F020FA00F040F8AD
:10682000FEF79DFB00207149088001BDF8B500F01E
:1068300066F8009805B000F0010000BD18B587B0FB
:1068400000226A4B1A8001A9684606F0DDFA9DF81D
:106850000F00674C0822A070BDF80C0001A9208031
:10686000201DFFF772FE9DF81400002200216073C6
:106870002046FEF775FB08B010BD80B5684606F0EF
:10688000CDFA932809D15B4801680A78012A8DF86E
:10689000002004BF02218DF800109DF8000002BD09
:1068A000F8B507F04DFD002814BF0020022008F0C5
:1068B000A8F9514808F0AFF9504808F0AFF900F0D6
:1068C0001EF80098C10718D54D49022003F0BDFC01
:1068D000484801680878012808BF022007F04FFEE9
:1068E00007F030FD00F00BF8009840F080000090B9
:1068F000684608F065F900F005F805B000BD684687
:1069000008F054B978B58FB005A83E49282204F0A4
:1069100037FC06F0BCF808B100201AE001A803F02B
:1069200019FC0400384D394E02D00090384B0AE073
:1069300005A8FEF713FB05A901A807F0ECFD04006C
:1069400006D00090334B32462946022003F07DFCEE
:10695000204610B070BD80B52448018841F4007114
:10696000018008F09EF948B102462B49022003F04D
:106970006CFC08F0F0F8BDE8014041E701BD1FB52F
:1069800004461A48008810F08F0F11D0902C02D1C5
:10699000FFF754FF1FBD912C25D002901F48009097
:1069A00001941F4B194A1F49022003F04EFC1FBDE2
:1069B000800504D5912C16D1FFF722FF1FBDFFF7EC
:1069C0009EFF902C0FD10098C1070CD542085200B1
:1069D0000092002101910291ADF80C10684608F078
:1069E000EFF808F0C8FB1FBD6C5A03001E7C0120A5
:1069F0001C5D0120E4760120008810020070EF0584
:106A00003C5A0300885A0300B05A0300C45A0300DA
:106A1000CC5A0300E45A0300FC5A0300645B0300F1
:106A20004C5B03002C5B03001CB5DFF8884C0A228A
:106A300000212046FFF7D0FD60220021DFF8780C0E
:106A4000FFF7CAFDA0206080052120208DF80410EA
:106A5000009001AB10222121F220FFF738FB13BD7B
:106A60000020DFF8501C00B508704FF0FF3187B0F0
:106A70000491002100238DF81800039002900191E9
:106A8000009304AA08F0EEFE07B000BD18B5DFF8C9
:106A9000244C207A87B0C10710D5002204928DF8CB
:106AA000182009F077FA00200021002320720391BA
:106AB00002900190009304AA08F0D4FE0020DFF8B1
:106AC000FC1B087008B010BD80B5FFF7C9FF00209F
:106AD000DFF8EC1B087001BD2DE9F04700F001085C
:106AE000C0F342048946924606094509DFF8D40BF3
:106AF000016806F0010605F001050A685079F228E0
:106B000026D1DFF8B07B387820B109F07EFDF98816
:106B100088421DD1B8F1000F18D009F076FDF88039
:106B20000120A021E207387079807C7046BF4FF4C5
:106B30007A7101FB09F1DFF8901B7D71DFF8800BA2
:106B400006F0AAFB26B187F804A001E0FFF788FF52
:106B50000120BDE8F087002070472DE9F04F07467F
:106B6000780A00F00309C7F341108FB08DF81800C0
:106B7000F80A00F0070ADFF84CBBDDF87C80DFF88C
:106B80005C0B002438400828DBF80000057908BFBA
:106B9000A046042D08BF012402B90AAA189E06B90E
:106BA0000AAE1D9D05B90AAD009313460A4607F0CB
:106BB000070107A809F0E2FD002857D0DFF8201BE5
:106BC000012003F048FBDBF8000001684A79F22A53
:106BD0004CD1B9F1010F49D09DF82400C0B1022871
:106BE00044D10022082107A803F0A5FA00283DD1CE
:106BF00007F01800182839D0AAF10500022835D36B
:106C00009DF8180068B9F8060BD47CBB85202BE0F2
:106C1000079858B310F1070FEAD310F1010F25D1EF
:106C2000E6E71C9A1E981A990492199B9DF8182061
:106C300001900091CDF814800395029607A938467B
:106C40000AF015F938B1DFF86C0A417888070DD5DC
:106C5000FFF706FF0AE0380708D509F03CFEFF28D9
:106C600008BF002C02D18920FDF753FF01200FB08F
:106C7000BDE8F08FF8B50F461546DFF8481A0A68E8
:106C80008AB014686179F2294ED1129C1099119A38
:106C9000139EF02C49D0F32C61D100218DF82410E3
:106CA0000791002B3CD10AF0E4FA87423AD1DFF891
:106CB0000C6A3078DFF8FC4910B1207A810764D57E
:106CC00005F0E7FE0B3840F0100004AA01238DF810
:106CD000100000210192009303910291F32307AA6F
:106CE000012008F0BFFD0120207205F0D2FE05F161
:106CF0000B0188420BD001200B3500FA05F1002270
:106D0000032009F096F8207A40F0FD0002E0207A96
:106D100040F00200207241F28831304606F0BCFAA1
:106D2000012033E0FFF7B2FE2FE010F007008DF8EE
:106D3000180008BF049301D000F02AF80AF099FA6D
:106D4000874203D100F02DF8F0231AE00020002143
:106D50000023039002910190009304AA13E0F72C02
:106D600003DAA4F1B005102D0FD210F003008DF856
:106D7000180008BF049301D000F00AF800F011F8E1
:106D8000234604AA012008F06DFD00200BB0F0BDE1
:106D900002238DF819208DF81830082204A8FFF777
:106DA000D4BB00200021721C039002910192337821
:106DB00000937047002070472DE9F0470446626851
:106DC0008846002192B24046FDF734FF207C08F14E
:106DD000020530B9A26800212846FDF730FF2D1DBD
:106DE00008E0022806D1082204F108012846FFF72E
:106DF000ACFB0835207C022804BF607C05F8010B41
:106E00006168880403D5A28A00F097F8AD1C606819
:106E1000410410D5A07D002105F8010BA269284688
:106E20002D1DFDF70CFF102204F11C012846FFF771
:106E30008CFB103507E0800605D5A26900212846A5
:106E4000FDF7FDFE2D1D20794FF00C0A41060ED5F1
:106E500000F067F800F05CF805D100F067F800F08A
:106E60006AF800F04EF87F1CF9B20229F2DB606884
:106E7000C10517D500F055F8FAB20AFB02F204F189
:106E80002C018E183378022B08D1728800F055F847
:106E9000B288AD1C00F051F800F033F87F1CF9B255
:106EA0000229E9DB04F14400017805F8011B22798D
:106EB00002F01802182A1CBF407805F8010B62681E
:106EC000100403D5120C00F038F8AD1C6068C10343
:106ED00012D500F026F800F01BF809D100F026F8D2
:106EE00000F029F899F80000AD1C0A3089F800007C
:106EF0007F1CF9B20229EEDBA5EB080188B2BDE8E0
:106F0000F08799F80000AD1C401C89F8000070471C
:106F1000FAB20AFB02F204F12C018E183378032B2B
:106F200070470027A94605F8017B70470822B11C6D
:106F30002846FFF70ABB7289083500212846FDF76D
:106F400079BE2DE9F04F8B46B1B000F007018DF806
:106F50000410DFF870170968C0F3C10000900879C9
:106F60000027002490461D4600284BD109684A7925
:106F7000F22A3AD10AA9E0B209F032FC002834D151
:106F80009DF82800FF2818BF7F1C641CE0B204286D
:106F9000F0DD9DF8E800FEB2DFF810490690009899
:106FA000DFF80C99DFF80CA950BB00959DF8041090
:106FB00043465A4607A809F0E1FB00287CD007A801
:106FC00009F065FC0546FF2822D000200122FF239E
:106FD00005900490039202930196009000F072F8DD
:106FE0000AA9284609F0FCFB002869D1208809EB92
:106FF00000010AA8FFF7E0FE21884018208059E030
:107000000098012858D19DF8E800FFB2B84209D392
:10701000002105910491039106998B22029101961A
:10702000009245E00020059006980021FF2204917F
:10703000039202900196009100F044F80025002789
:1070400000269DF8E8B00AA9F0B209F0C9FB0028B3
:1070500036D19DF82800FF2816D06D1CEAB2934562
:1070600012D21CA90AA8FFF7A7FE8046208808EBC9
:10707000000152290CD242461CA94844FFF765FA88
:1070800020887F1C40442080761CF1B20429DADD80
:1070900089F80670FDF73BFD74280DD1002005909E
:1070A00003900698002104910290EDB201950091A1
:1070B00000F008F8FDF72BFD012031B0BDE8F08F9E
:1070C0000020FAE753460B2221210120FEF7E4B805
:1070D000F2282DE9F04F4FF0000AA7B008BF212990
:1070E000D0464CD1112A02BF802B3098002846D1BF
:1070F000319D052D43DD1120FDF78AFFDFF8AC47F8
:1071000026880027DFF8A897361DB6B2B346694631
:10711000F8B209F065FB30BB9DF80000FF280FD0E6
:1071200012A96846FFF748FE8046301885421CDBEE
:10713000424612A909EB06004644FFF706FAB6B22A
:107140007F1CF8B20528E2DBA6EB0B065FEA0A001B
:107150000ED10020FDF74DFF4320FDF74AFFB0B2EE
:10716000FDF756FF06E000200AE04FF0890AEBE742
:10717000FDF73FFF20884FF0010836182680404673
:1071800027B0BDE8F08F2DE9F04F8BB0DFF8246514
:10719000307868B10A93187A002804BF1B68002B66
:1071A00006D0199CE02C18BFE22C01D0179B0BB124
:1071B000012013E1DDF874901C9DDDF868A0DDF876
:1071C0005480149F8DF824208DF8251083460AF0F2
:1071D00050F89DF825100690189807919DF82410F6
:1071E00002900A98CDF820A0CDF81490049503944D
:1071F00001970091437A024601684BEA071040EA82
:10720000881444F4006009F05CFAFEF7BCF8044608
:10721000F2202071607105200AF04CF9707910B1EC
:1072200000F012F80DE09DF82400A0F10C05E088B4
:10723000A57240F00200E0800A980BF075FD00F0A6
:1072400088F800F036F9B3E7F1880020FEF772B84D
:107250002DE9F84F8AB005461C46207A002804BF65
:107260002368002B73D030B9236813F1070F02D3C2
:1072700013F1010F6BD102280AD10023D8B2205C90
:1072800018B95B1CDEB2082EF8DBDBB2082B5ED02F
:10729000169800285BD1179E237A3000159818BFE6
:1072A00043F008037E2D18BF7F2D03D143F40073F4
:1072B00000B10420149D43EA8013DFF8F8932F01F6
:1072C00047F4006799F805003B43ADF826300F46B8
:1072D0008DF82420DDF868A0DDF87080DDF874B04A
:1072E00090B109F0C6FF00F03AF8002E14BF20203C
:1072F00005200AF0DFF8FEF746F800F0D6F8B9F8F6
:107300000610FFF7A2FF20E009F0B3FF00F027F816
:10731000FEF739F800F0C9F89DF82410A1F10C052A
:10732000C188857241F00201C18036B17F0900F049
:10733000B6F83F0E2037B8B200E005200AF0BAF8E0
:1073400020460BF0F1FC00F004F800F0B2F8012048
:1073500044E00146EAB24FF6FD70FDF7FFBF06902C
:107360009DF864001899CDF820A003909DF82400A2
:107370000797CDF814B0CDF81080029101950090D8
:10738000637A2168BDF82600224609F09AB900E028
:1073900000BF2DE9F84F8AB0DDF85080DDF854E0E9
:1073A000DDF858C0179FDDF86090199EDDF868A0E1
:1073B0001B9D1C9CDDF874B007950894CDF824B093
:1073C000CDF818A00596CDF810900397CDF808C019
:1073D000CDF804E0CDF80080FFF73AFF0BB0BDE830
:1073E000F08F2DE9F84F8AB0B24E3478002C1EBFD2
:1073F000347A04F00304012C4FD008257E28159818
:10740000149C08BF4FF40275800140EA04108DF807
:1074100024200F4640F400602843ADF82600707920
:10742000DDF860B0DDF86480DDF868A01C9DDDF853
:10743000749068B109F01DFF00F03EF8FDF7A3FF5E
:1074400000F033F820200AF035F8FFF7FDFE22E0C7
:107450001E4609F00EFF00F02FF8FDF794FF00F034
:1074600024F87F099DF8241000F019F8A1F10C040C
:10747000C1883F0E847241F00201C1802037B8B24A
:107480000AF018F830460BF04FFC0146E2B24FF616
:10749000FD70FDF763FF00F00CF801209EE707F098
:1074A0000607C7F103077F077047F2210171417199
:1074B0007047002009F0FEBF06909DF82400CDF82B
:1074C00020A007970090BDF82600CDF814900495F1
:1074D000CDF80C80CDF808B00194002300220021E3
:1074E00009F0EFB82DE9F84F9AB02B9892460F4665
:1074F00002461C46FF2A00F0D88048214A43DFF8A4
:10750000B83319680D1DAB58091D43F400738B5037
:1075100043F48063AB5008A909F062F9002840F0F9
:10752000C480079494F8089000214FF00C0808FBE1
:1075300001F208A8104490F82C00002814BF03287A
:1075400049F0080903D0022808BF49F02009491C66
:107550000229ECDB9DF82400299D279C0106249933
:10756000259848BF49F0100949EA8112E02D42EA06
:10757000002040F4A0401FFA80F918BFE12D02D18D
:107580004C4A107810B10CB149F400698DF818A07C
:10759000289E01B95646DDF8B4B0DDF8B0A009F078
:1075A00068FEFF2105910490CDF80CB0CDF808A03D
:1075B0000195009607987F09437A0246016848467C
:1075C00007F0060709F042F8C7F103077F079DF8A7
:1075D00018A03F0E07F120054FF00009079FAAF100
:1075E000090B08FB09F108A8084400F12C063078C3
:1075F000002818BF03280ED1FDF7C5FEF221002C8C
:107600000171417114BF2020052009F053FF7189D9
:10761000FFF71BFE1DE002281DD1FDF7B4FEFFF7AA
:1076200044FFC18880F80AB000F050F814BFA8B237
:10763000052009F03FFFB0884FF6FF71884204BF74
:1076400038460BF071FB014670885FFA8BF2FDF74C
:1076500056FEFFF72EFF09F10109B9F1020FC0DB59
:107660009DF82400010620D5FDF78DFEFFF71DFFD4
:10767000C18880F80AA000F029F814BFA8B205203C
:1076800009F018FF0998810448BFBDF8348003D47D
:1076900038460BF049FB804638460BF045FB524616
:1076A0004146FDF72CFEFFF704FF01201BB0BDE8AB
:1076B000F08F0000986D0120A46D01200C6E012058
:1076C000046E01206C77012000710200002C41F053
:1076D0000201C1809DF86410C17270470800020069
:1076E0003C6A0300012070472DE9F84F07460D461C
:1076F0007248017A9EB01646C80703D59DF8B410AB
:10770000E32910D1289C0B93200002BF6B49087815
:10771000002810D1184609F0BAF8FF280BD00CA9A0
:1077200009F05EF800287BD10D98410478D49DF8CB
:107730004600002874D1002F8DF8287018BF7C2FC8
:1077400005D07F2F6CD15D490878002868D05B494F
:1077500008788DF82A508DF829602A9D2B9EDDF837
:10776000B090DDF8B8A02F9FDDF8C080DDF8C4B080
:1077700000284DD0280003D000F06DF8FFF703FD7E
:107780009DF8B400E02836D02AD3E2281ED002D3D8
:10779000E32820D024E09DF8A410E1200590019179
:1077A0000B9B9DF829209DF82A109DF82800CDF804
:1077B00024B0CDF820800797CDF818A0CDF8109010
:1077C000039602950094FFF7E2FD29E000F045F8EA
:1077D000FFF7DEFD24E000F040F8FFF702FE1FE0B7
:1077E0009DF828107C290BD1A0F1E4020C2A24BFBB
:1077F000B038102810D200F016F89DF8280004E0E8
:107800007F2909D100F00FF87E20FFF721FD07E066
:107810009DF8B400E22803D000F01DF8FFF762FEE7
:107820001FB0BDE8F08F9DF8B4009DF8A41005903E
:10783000CDF824B00191CDF820800797CDF818A09D
:10784000CDF810900396029500940B9B9DF829208B
:107850009DF82A1070479DF8B4009DF8A41005907B
:107860000B9B01919DF829209DF82A109DF8280076
:10787000CDF824B0CDF820800797CDF818A0CDF82A
:1078800010900396029500947047002800D070472E
:1078900010B50A4C207AC10707D508F07BFB002001
:1078A0002072BDE81040FFF7F1B810BD7C7F0120C9
:1078B00090760120486A030030570120986D01201E
:1078C000912800D0704780B500F0D9FE18B9BDE806
:1078D00001400BF06BBB01BD1CB5059C1CB1049CA9
:1078E000009404F0C9F813BD30B50246DFF8B408BF
:1078F0000023DFF8B45803E0D45C5B1C60406843AD
:107900008B42F9DB30BD0246084614232D2105F0D9
:1079100002BC0A46014614232D2005F027BC9028FE
:1079200008BF0BF069BB704730B585B00024DFF8A5
:107930007C586946E0B2FFF7E6FF9DF8010038B1D8
:107940009DF8000020B918206043012128440174EB
:10795000641C0E2CEDDB00F027FB05B030BD2DE9DB
:10796000F04F00249FB0A046A346A146002505A9DC
:10797000E8B2FFF7C8FF0BF088FB18226A43DFF874
:107980002C188E183268821A9DF8150000280FD026
:107990009DF81410002923D1BDF820104FF47A73FC
:1079A00059438A4208D3317C41B9BDF822100029DD
:1079B00000F0B6804B439A42C0F0B28004A9039114
:1079C000BDF81C1041220EAB0292019300919DF86C
:1079D0001A30BDF81820BDF81610FEF795FD0028E6
:1079E00040F09E809DF81000FDF732FD20B10EA8FA
:1079F000FDF78EFB401C03E09DF8100005F014FC21
:107A00005FFA80FA0AF10302DCB120799DF81530A3
:107A10006188834204BFBDF816308B420FD19DF8B8
:107A20001A30DB095B4504BFBDF81C30434506D165
:107A3000DFF87C371F88D2B2D219914540DA00F0C6
:107A40007DF8FDF7A0FC04469DF81A00DFF86417E6
:107A500000915FEAD01BBDF81C20BDF8161014BFC2
:107A6000002008200A23FDF70CFC9DF815004FF4B8
:107A70008A51E1802071BDF81C804FF0FF0900277A
:107A80000AA9F8B204F09CFD002802BF9DF8290065
:107A90009DF81510884202BFBDF82A00BDF81610E7
:107AA000884209D19DF835109DF828002246FDF73F
:107AB00097F8484598BF81467F1CF8B20228DFDD61
:107AC000BDF81800FDF7A4FA9DF81000FDF791FA33
:107AD00051460EA8FDF7CCFA002030740BF0D5FA11
:107AE0003060002000909DF810000EAB52464128F7
:107AF00018BF42280AD1AAF10101C9B20DF139001B
:107B0000FFF7F2FE00906B46042201E0092A07D23B
:107B10000020C6E90200194606F10800FEF715FD2F
:107B20006D1C0E2DFFF623AF1CB16188207900F08B
:107B300005F800F039FA1FB0BDE8F08F10B50C461B
:107B4000FCF72AFD08B9032C0BD1DFF86C06FDF712
:107B5000BFFBB42808BFFDF7C9FBBDE81040FDF727
:107B6000D0BB10BD2DE9F04F87B00546687D0026DB
:107B70002C7D0028DFF83C1600912F6807BF0820F5
:107B80004FF0400800204FF080082A8A07237988A8
:107B9000FDF777FB8DF80580AA89A1B2C81C904239
:107BA0007BDAA868641C415C8DF80610A1B2FDF771
:107BB0008DFA80469DF80600A41C10B1012852D011
:107BC0005BE0A868A1B2641C425CA1B2A41C8DF861
:107BD0000420AA894FF0000AFDF778FA074600F062
:107BE00066F881469DF80400FDF7BDF860B99DF880
:107BF000040005F019FBAA898346A8685B46A1B278
:107C0000FDF74DFA82465C44298A28689DF80530C4
:107C10000091418840794246FDF7FAFC00281FBFD9
:107C200080789DF8041088428D2727D128684179F3
:107C30008DF80910286841889DF80500ADF80C8082
:107C4000ADF80A108DF80E00298AADF81470ADF861
:107C50001690ADF81010CDF818A002A800F0FEF9AB
:107C6000070099D00AE000F022F89DF805200346AD
:107C70004146284600F0A4FAF2E785273846FDF78A
:107C8000B8F99DF806000126FDF7B3F94046FDF767
:107C9000BFF9852F7FF480AF03E016B90020FDF710
:107CA000A8F9FCF734FF012007B0BDE8F08FAA89DE
:107CB000A868A1B2A41CFDF709BA2DE9F04786B067
:107CC0000746787D3D7DDFF8EC14002800913C6884
:107CD0003A8A07BF08204FF0400800204FF0800884
:107CE00009236188FDF7CDFA13E0398A38684346E5
:107CF0000091418840794A46FDF78AFC04001FD173
:107D00008620FDF776F90020FDF773F94846FDF768
:107D10007FF9BA89A9B2CB1C9A4254DBB8686D1CB2
:107D20000024465CA9B2FDF7D1F9AD1C8146002EB6
:107D3000DBD0012E04D08520FDF75BF93046E3E768
:107D40004FF0000A01A95FFA8AF0FFF7DCFD9DF809
:107D50000400B04201BF39689DF805004A7990429D
:107D60001ED1BDF806004A88904204BFBDF8080045
:107D7000484515D19DF80A00404502BFBDF80C00EA
:107D80003A8A90420CD19DF8040000B3BDF810006F
:107D9000FA88904202BF9DF812000979884216D0F5
:107DA0000AF1010A5FFA8AF00E28CBDB8B20C3E7C9
:107DB0005FFA89F0FDF71DF94FEA1929641E2BE0DF
:107DC000BDF81400A3E7FCF7A2FE01202BE1002080
:107DD000FDF70FF93046FDF70CF94846FDF718F9A5
:107DE00016B1012EECD094E7002C92D0A078FDF7CC
:107DF00000F9BDF81000FDF70BF9BDF81200FDF712
:107E000007F9A078FCF7AFFF002882D1A07805F031
:107E10000BFA0446DDF81490E0B20028C8D178E7E8
:107E200010B50024E0B200F001F9641CE0B20E28A5
:107E3000F8DB0021DFF884030170002010BDB121C0
:107E400080B50E2802DA00F003F90021084602BDD1
:107E50002DE9F04387B006460F46904699460E9CA2
:107E6000002502A9E8B2FFF74EFD9DF808000028A2
:107E700004BF9DF80900B0420FD1BDF80A00B84216
:107E800004BFBDF80C00404507D19DF80E004845E1
:107E900004BFBDF81000A04206D06D1CEAB20E2A45
:107EA000DFDB07B0BDE8F0830F9F00202C46019078
:107EB000109D384605F0B8F9412F0146284618BFF5
:107EC000422F08D1FDF724F90146681CFFF70CFD8D
:107ED000019001A80421E4B218256C43B34E00912F
:107EE0002644D6E90223FCF775FB04460D463846C6
:107EF000FCF739FF012803D1002D08BF002C07D162
:107F00000028CED1002106988D4201D88442C8D3E2
:107F10000122327400F048F8C3E710B542784B787C
:107F20009A4202BF42884B889A421AD182888B8833
:107F30009A4202BF82798B799A4212D102890B89C7
:107F40009A4202BF02780C78A2420AD13AB18289E1
:107F50008B899A4202BF807B897B884201D10120B4
:107F600010BD002010BD30B585B00446002500F0DE
:107F700096F921466846FFF7D0FF78B900F08BF9F3
:107F8000F5DB002500F08BF99DF8010030B16D1C88
:107F9000E9B20E29F6DBFF2005B030BD2146E8B27C
:107FA000FFF7B7FCE8B2F7E72DE9F8474FF0FF39E4
:107FB00085B0C8460025DFF8F4A14FF47A7700F0C9
:107FC0006EF99DF8010008B39DF80000F0B9BDF806
:107FD0000C60BDF80E400BF058F8EBB218214B4383
:107FE0007E437C435AF8031053444A46411A187C96
:107FF00018B18E4204D3721A05E024B18C4201D22A
:10800000002200E0621A424598BF904600F043F912
:10801000D5DB6A4818F1010F03D04146FEF783FB18
:1080200001E00021017006B0BDE8F08718B585B009
:1080300004466946FFF767FC00228DF80120694677
:108040002046FFF766FC6846FCF77CFF06B010BDD3
:1080500080B5FFF7EBFFBDE80140A5E72DE9F04152
:1080600086B005462889FF2601270090AB79AA88AB
:1080700069886878FDF7CCFA08B986208EE0E8892F
:1080800020B1A989884238BF8720F7D3002401A9ED
:10809000E0B2FFF738FC9DF804109DF805000029B8
:1080A00004BF6978884213D1BDF806106A889142EE
:1080B00002BFBDF80810AA88914209D19DF80A10A4
:1080C000AA79914202BFBDF80C102A89914214D0BE
:1080D000002802BFF0B2FF282646641CE0B20E283A
:1080E000D5DB3446E8894FF6FF71884207D117B9CE
:1080F000E0B2FFF7ADFF002050E00027F2E70026D6
:10810000002804BFA88988420AD11422294601A860
:10811000FEF71BFA01A80AF07BFF08B10127012630
:10812000E0B2FF2808BF892038D017B300208DF8AF
:1081300004006978E7B20E2F8DF805106888ADF855
:108140000600A888ADF80800A8798DF80A002889EB
:10815000ADF80C000DDA18204743DFF850800AF024
:1081600094FF48F8070008F1080200203A44C2E9E9
:1081700000003EB9A889ADF81000E889ADF81200FA
:108180002869059001A8FCF7DDFE050005D101A9CD
:10819000E0B2FFF7BEFBFFF707FF284606B0BDE8D9
:1081A000F0810000C59D1C8193010001705A0120DF
:1081B0007C7F0120AFD40300D97800001C6001202F
:1081C0002DE9F84785B007469A46FF260124002589
:1081D0008846914600F063F89DF80000012801BF31
:1081E00038689DF80110427991421BD1BDF8021008
:1081F0004288914204BFBDF80410414512D19DF858
:108200000610494502BFBDF808103A8A914209D1CB
:10821000BDF80C10FA88914202BF9DF80E1000794B
:1082200081420FD09DF80100002802BFF0B2FF2864
:108230002E4600F030F8CDDB3546E8B2FF2803D1FA
:10824000892027E00024F8E7C4B101208DF8000060
:10825000396848798DF8010039684A88ADF804809A
:108260008DF80690ADF80220398AADF80810F8882C
:10827000ADF80C00396808798DF80E00ADF810A043
:108280006846FCF75FFE040003D16946E8B2FFF7D9
:1082900040FB2046C7E66D1CE8B20E2870476946D1
:1082A000E8B2FFF730BB30B585B004460025FFF7D4
:1082B000F6FF21466846FFF730FE38B9FFF7EBFFBF
:1082C000F5DB2046FFF74FFE05B030BD0020FBE791
:1082D00080B5A0B080787D22694604F0F1FC0100F1
:1082E0001CBF694603F089F821B000BD0A4601466B
:1082F00038B510460BF00EF80446FF2801D11820BF
:1083000032BD0BF01FFF054620460AF080FF2846CD
:1083100032BD80B502F072FF0120BDE8024010B509
:10832000040014BF084800200BF0F8FF50B1002CE7
:108330000346064914BF064A064A0220BDE810401B
:1083400001F083BF10BD00005867030014670300ED
:10835000406703004C67030080B552220021524859
:10836000FEF73AF95222FF215048BDE80840FEF7D7
:1083700033B92DE9F641044601F030FE06462046A9
:1083800001F03CFE9DF8001022464FF6FF7516B333
:10839000019B212A1B781EDA4220454E022B09DA66
:1083A0004343F01830F81230AB4214D05B1C20F875
:1083B000123010E00FD1002306EB420700FB03F65A
:1083C00037F806E0AE451CBF0EF1010E27F806E0B7
:1083D0005B1C022BF2DBDFF8D4C0334E3CF81230CA
:1083E00036F812709F428041C043C00FAF421CBF9D
:1083F0007F1C26F81270092CBCF8147018BF0B2CC7
:1084000008D1B6F814C001EB0C0EBE450FDA61447A
:10841000B1820DE01D2C0BD1B6F83AE0BCF83AC0A1
:1084200001EB0E08E04502DA7144718700E0B78283
:1084300036F81210994203D310B92046FCF767FDB5
:1084400000201C49C6B28A5DA24204D0401CC6B2BC
:10845000112EF7DB17E0112E15DA02F0CCFD0446E1
:10846000154801788C4203DBE02114480CF0C0F879
:10847000222044431249081930F81610A9421CBFA3
:10848000491C20F81610BDE8F3815222002106484D
:10849000FEF7A2B85222FF210448FEF79DB8034A16
:1084A00022F8101070470000D071012024720120C2
:1084B0009C7201202C7C0300335A01201C7C030099
:1084C0007872012000BF10B502224FF444510420FD
:1084D0000CF08AF91448102101604FF440324261D7
:1084E00001230422032100200CF014FA00220021B1
:1084F00003200CF091FA0D4C20600D490CF0D9FAD4
:10850000206804210CF0B0FA2068BDE810400CF09F
:10851000D2BA80B50AF0B9FD064901200CF040FC42
:1085200000200349087001BDE4C403408C7301209E
:1085300084730120587C0300DFF8382A13681A7806
:1085400082420AD019B1012A03D1022805D00020A5
:108550007047022A08BF0128F9D101207047DFF8CF
:108560007C1B91F900201E32824201DA0120704703
:1085700000207047DFF8681B0876704710B5DFF8F9
:10858000F4492068427B112A00F005804FF4BB714A
:1085900003A00CF02DF820684121417310BD0000AC
:1085A0006173736F63696174696F6E2E630000009D
:1085B00080B5022002F025FD02F02CFD01F090F9BB
:1085C0000A7B042A05D1DFF8180BC17D491DC1754E
:1085D00005E04FF47A71DFF8A00904F05DFEBDE814
:1085E000014002F018BD10B5DFF8F44A00206075B4
:1085F0002078FF2803D00AF00AFEFF20207010BD6B
:10860000F8B504460D460AF08DFD0746B81D0CF07E
:10861000D4FB00F44040B0F5404F0CBF06260026C6
:10862000B819007C4100400801F00E0100F038004C
:1086300040183618DFF8AC0A01681136F7B20B5D46
:108640009F420CDA9B1BD8B20F28F2B22146A8BF7A
:108650000F2300200090DBB228460AF076FEF0B22D
:10866000F2BDDFF810190A688078137B022B0CBF6B
:1086700000F0040000F0800000B101207047DFF836
:10868000F4080168487B33281CBF4328532801D1D4
:1086900001207047002070472DE9F84187B0012084
:1086A0000CF0BAFB0CF0BCFB08F0E4FE002855D03F
:1086B000DFF82C5AA87910B105F10C0005E02878F4
:1086C00003A9FFF79DFF0DF10F00DFF8AC48002173
:1086D000217069790027DFF8105A01F0E3FAFFF7FB
:1086E00082FF00F03EF80DF008F80CF0D6FBDFF842
:1086F0008468DFF8848C98F80010F8B288422DD294
:1087000002F088FC30684FF6FF724188914218BF32
:10871000012007D100220821001D01F00CFD401EA0
:108720008041C00F217A01F00101014212D030686E
:1087300008224188ADF80810011D6846FDF705FFC5
:108740000A230A2201F0F2FA02230B222946002012
:108750000DF0DAF902F05FFC7F1CCCE708B0BDE851
:10876000F08110B5DFF80C080068017B032918BF01
:10877000042906D141884FF6FF72914208BF0320B9
:1087800008D001F04AFC044601F04BFC214603F0FE
:10879000A0FE022001F04DFC0DF066FA00F054FE40
:1087A000BDE810400CF0D4BF38B5DFF8344920766E
:1087B000FFF719FF00214FF6FF7001F083FBDFF890
:1087C000B4572968487B032818BF00281ED03328D7
:1087D00018BF432814D101F01CFB2868017B032932
:1087E00018BF042906D103214173207EBDE8324021
:1087F00002F06FBC207E02F06CFCBDE83140B0E7B7
:1088000021204873BDE8314006F0ACBA31BD10B547
:1088100000F02CFE0020DFF8C84850734FF6FE70C1
:1088200008F02BFD4FF6FF7008F02FFD01F0F1FA74
:10883000207EBDE8104002F04CBC00007FB504462D
:10884000E07A1522DFF82C57029094F90A100320E1
:10885000019123892FA1009323460DF082FB296803
:10886000487B70B9208901F04AFB0AD0DFF8F82B69
:1088700010780B2805D102F0CFFB10B902F0CEFB27
:1088800010B1702004B070BD2868017D880708D53C
:1088900008F0EFFC4FF6FE72904203D10DF099FB09
:1088A00000E00020214601F0B5F906000DD128684E
:1088B000017D88074CBF0220012001F081F90021D1
:1088C00001200DF0C9FD060001D03046DAE7DFF8DF
:1088D0001018087F08B10EF0F5FE0022082120468E
:1088E00001F029FC30B1042120460EF02DFF08B123
:1088F000A520C7E7DFF87C0B01780020DFF8782B94
:10890000E08121746261204600F002F9064602F01F
:108910003EFBDAE7423870574242000038B5044661
:108920002346182201F077FADFF8240C00210171A8
:10893000220002D0FF2C02D10121017007E0A50026
:1089400001226D1C00F8042B290204F0A5FC00F0A4
:108950007BFD002032BD0020DFF8F41B0871DDE74D
:1089600038B588B004460D46686916220790297C00
:108970000691E8890590297B0491E87A039095F99E
:108980000A10032002912B89CDF800505DA10193BC
:1089900023460DF0E6FA287B00280CBF4FF6FE7048
:1089A00008F067FC2B462246014609B00120BDE8CD
:1089B00030402DE9F0410F46DFF8B8452168804688
:1089C0001646487B1D4600284BD1300049D0042E66
:1089D00047DCDFF8940A01780B2942D102F01CFB36
:1089E00000283ED102F01AFB08B1032E39DD287BA6
:1089F000032816D14FF6FE718F4214D1012E08BF05
:108A0000002710D0022E2CD108F033FC4FF6FC7159
:108A1000884202DA08F02DFC01E00DF0DAFA074690
:108A200001E0012E1DD0B8F1000F0CD0287B0328E7
:108A300030460CBF01210021012E18BF00200DF08F
:108A40000BFD01005CD12946384601F0E3F8010036
:108A500056D102F0DBFA02F0C0FA20B102F0DEFAE1
:108A600008B170204CE02068DFF87476407B332832
:108A70001EBF532800207876304601F0A1F8387FD9
:108A800020B102F0CBFA08B90EF01CFE287B0328B7
:108A900003D12846BDE8F0413AE00822294607F113
:108AA0000C00FDF752FD287B0328A8BF0020387575
:108AB000FFF799FD387D94213976002821684FF021
:108AC00001030CBF0120312048730020B8752168D4
:108AD000897B480903D1BA7F03FA01F108E001F06C
:108AE0001F0140F0180003FA01F1052241EAC061BC
:108AF000052007F09EF9010002D022680021517381
:108B0000BDE8F08142423870574242425742440029
:108B100010B504460022082101F00DFB08B1012028
:108B200010BD08F0A6FB00224FF6FF7101F09CF883
:108B3000217C204601F0B6F86269E189207C0DF0C5
:108B4000C3F8DFF8300401680A7B012A08BF0EF081
:108B50001BFAFFF706FE002010BD7CB5DFF81454A9
:108B600029680446487B002802BFDFF8FC18087813
:108B70000B2801D0702076BD01230D220DF10101DB
:108B800001F0C4F99DF80100DFF85015DFF8E86343
:108B900008702CB10222214606F10800FDF7D5FC31
:108BA000684601F067F908B1932076BD9DF8003062
:108BB000142201F030F901F0BDF8010050D19DF808
:108BC000000000F0FDFF2868007B012818BF022884
:108BD00007D0032818BF042825D1002001F099F9F7
:108BE00008B301F0BEF82868007B032814BF0428EE
:108BF0000EF04BFEFFF7B5FD01200EF067FE010001
:108C00002ED12868007B032818BF042827D1307A8A
:108C1000810724D50522DFF86018012000F036F81E
:108C200001001CD076BD2968132000224873DFF8AC
:108C3000B004827529684FF00102897B480908BF9A
:108C400002FA01F107D001F01F0140F0180002FA0A
:108C500001F141EAC0610522072007F0EAF800208F
:108C600076BDFF2212E0000038B504461046032806
:108C70000D4618BF042801D0022032BD00F0A0FF2D
:108C8000294620465FF0FF02BDE838402DE9FE434B
:108C90008046B84800680D469146017B01293CD0CA
:108CA000477B022F07D0032F37D15FEA080102D19B
:108CB000007D810731D4332001F0BBF915F0784FE6
:108CC000DFF81C44294614BF0522A27F052007F0C7
:108CD000B0F8064698B9FFF786FC08F0D2FA608132
:108CE0005FEA080014BF02200120207504F10C0087
:108CF00001F0D7F80020A07584F8199002E03846FA
:108D000001F097F95FEA08004946284602D00EF0C4
:108D1000FFFD03E00EF0FBFD00E0702601960095DC
:108D200043462C2203A103200DF01BF93046BDE879
:108D3000FE830000424244420000000038B5044671
:108D40000AF0F0F9054620460EF045FE2C182046A4
:108D50000CF033F84FF6FF5101402046BDE8344097
:108D60000CF032B878B587B00C4616461D4630B9BF
:108D700020460EF03BFF03A90EF0B2FB03A80C99AE
:108D8000019007238DF8096001208DF80830360A1C
:108D90008DF80B1000908DF80A60042302AA0121BF
:108DA00020460FF06AF80646FF2818D021460EF03C
:108DB00053FE15B93046FFF7C1FF0D9808B930468C
:108DC0000DE020460EF0C5FB18B130460FF024FA36
:108DD00001E000F09DFE30460AF019FAFF2008B0CD
:108DE00070BD2DE9F34F83B0834614461F4600251E
:108DF0004FF6FF7A54B120460FF07AF866784FF0BC
:108E000001098046760806F0010605E008460EF0E6
:108E10008CFEA9460026804600F062FD087B0328F0
:108E200018BF042800F0A2809DF810007F1CF9B242
:108E30000AF090FB0746400800F001008DF8090099
:108E4000380600F04DFD8DF808B058BF47F0800798
:108E50004A7B022A05D1DFF8F826107850EA0B0188
:108E600001D1022520E0404608F0B2F982469DF883
:108E7000100003210EF0A9FD834608B94FF0010B45
:108E8000B9F1000F03D0201D0BF097FF8246CDF8FB
:108E900000B001233A46514640460EF04AFA01F02E
:108EA0002EF8824608BF0125DCB19DF8080018B9EC
:108EB000504601F024F802D1201D0BF07EFF012165
:108EC000019101460095334652464046FFF74AFF5E
:108ED0009DF8090050B94FF6FF7140460FF042FE71
:108EE00004E02A465146404610F00CFB002D3DD1CF
:108EF0009DF8090090B1414650460FF057FE00F032
:108F0000B5FA84460E21936A11FB0CFC03EB0C01AD
:108F10004A7942F040024A710FF097FE30001EBFBE
:108F200050464FF6FF7188420BD00EF05FFEDFF81F
:108F3000D81B0A684BF6FF7132F810300B4022F84C
:108F400010309CB108F095F90EB1002405E09DF8B1
:108F50000810002914BF0324012401464346524649
:108F6000204605B0BDE8F04F10F02ABB05B0BDE8C3
:108F7000F08F0000B0780120047901202DE9FC4732
:108F800081460C4601A900200860904620460EF05C
:108F90002CFD0646DFF8745B5FEA090107D00EF08E
:108FA000A7FF074630460EF098FF824604E02046B1
:108FB0000EF0BBFD0746AA4600200090042342465F
:108FC000214601A80AF0C1F90DF105000BF0F5FEEC
:108FD00080469DF807405FEA090006D0082229462E
:108FE0005046FDF700FB002874D1DFF8D8582968F7
:108FF000C87E10B17078820713D55FEA090010D0DF
:10900000487B022808BF002C0BD1404608F035F9F8
:109010000CF073FB992300F0FDFE992002F059F843
:1090200058E001F09AF8002818BF002C03D09420D3
:10903000FFF7BAFB4EE001F090F800284AD038461E
:109040000FF01EFCFF2818BF5FEA090104D1286851
:10905000394640880FF0AAFD0FF0F7FD28683A4620
:109060001F4F41884046DFF8384C00F0FDFD97F96E
:109070000200000260812868417B012916BF312966
:10908000112143214173022001F0BAFF40F6B831AB
:10909000204604F001F90EF0F8FB0020F87529686D
:1090A000C87E18B9204604F0EDF811E0B9F1000FC0
:1090B00005D07078820702D5FFF7EEFA08E0087B4A
:1090C000042805D10521204604F0E6F80920F875AA
:1090D000AD21397601F05BFFBDE8F387D057012061
:1090E000D4570120E4560120567C01202DE9F04F91
:1090F0008DB082460EF079FC81460EF0C1FC0190E5
:1091000050460EF012FD044602AB052205A950465A
:1091100010F084FD8046022824D050460EF05BFCFF
:1091200001999DF808204FF6FF7B08188618F31C5C
:109130008DF80030F1B250460AF00CFADFF8785C96
:10914000DFF8807701280ED0022813D0042800F021
:10915000F18006281AD007286ED0082827D07C284E
:1091600000F0B28005E1F3B2002251460020FFF783
:1091700038FEFEE03868417B012904BF287D0028C5
:1091800003D1F2B25146FFF7F9FEF2E020460EF0AD
:109190008DF9014658451CBF204610F07FF938680C
:1091A000417B022902D120460EF0A1FBE1E0002024
:1091B0000BF032FE711C00F08BFB9DF80010804616
:1091C00000F087FB8146B61DF1B200F082FB064637
:1091D0005845EBD00EF059FB3868417B132908D174
:1091E00000F0BFFD50460EF0A0FC014648460FF0CF
:1091F000DDFC3868407B022818BF13281BD130469D
:1092000008F03BF8404608F040F80021002000F04C
:1092100049FD2146484600F055FEE878DFF84C1C31
:10922000087000F011F93868417B132903D123221B
:10923000427306F0B9FE9CE00198012148440AF00F
:1092400069F8064600230022314601200EF05BFB40
:10925000002830466DD009F0DAFF3868417B0229DA
:1092600002BFDFF8BC7B38790028E4D1204610F03B
:10927000F5FC002805D005AA4146504610F0E8FC50
:10928000002876D003F054FB95F91D10012202FA54
:1092900001F1C1EB011189B290FBF1F501FB15055C
:1092A000002001F0ADFE6D1CB8F1010F07D10120C7
:1092B00038700822214607F10C00FDF746F9A9B2E3
:1092C000381D03F0E9FF54E0504609F02BFFF6B2D9
:1092D00080194178652904BF80786D2849D1DFF86D
:1092E000901B0A689DF8005012F80A70BD4240D2E7
:1092F0000822214603A8FDF728F96B4600222946DB
:1093000050460EF097FCA0BB9DF80000FF2830D01F
:10931000DFF8344C0120207001F077FE9DF800103A
:1093200003A80EF0D9FA01F076FE002020709DF817
:1093300000001CE050460EF017FC04460FA0008809
:1093400000210191ADF80A00009102230DF10A02FB
:10935000012120460EF091FD0546FF2809D0214647
:109360000EF07AFB002128460AF000FC284609F09E
:109370004EFF0DB0BDE8F08F335A0120046070B588
:10938000022001F03EFE01F045FEDFF814590020F6
:109390002870DFF8306508F06DF828B13168C87EB4
:1093A00010B9FFF779F924E0DFF80C4A08F062F809
:1093B00010B900F0D2FE58B1E07D48B1C82128466E
:1093C00003F06AFFE07D411EE1750AF0D7FC10E072
:1093D0003068417B132909D000F0BFFE30B93068F6
:1093E000407B11281CBF4328412802D1207EFFF773
:1093F000DBF9BDE8704001F00EBE0020DFF8B819BF
:10940000C875704710B5002001F0FBFD01F002FEA9
:10941000DFF80C4A00202071DFF8681B0868427BE7
:10942000022A0DD1007B032818BF042808D0207819
:1094300010B10FF0B3FF01E00FF04AFF00202070E1
:10944000BDE8104001F0E7BD80B501F0F2FDFF2856
:1094500004D03F48007810B1012000E00020BDE8B2
:1094600002400FF023BF0000505A0120DFF8141B08
:109470000A687047D67F012000F8FF072DE9F04108
:109480001546DFF8082B1C465288DFF8043B93F999
:109490000060DFF824793B785FEAC27C28D5FF2B97
:1094A0004FD0DFF820241268137B022B15D0527B9B
:1094B000012A0CBF0028002945D03046FFF74FF89D
:1094C000804697F90200FFF74AF8804505D03046FC
:1094D000FFF745F8002837D033E097F90800A84295
:1094E0002FDB30D17879241AE4B2812C29DB2AE0F1
:1094F000DFF8A00A0078910710D5FF2B21D097F94B
:1095000008104910B1EB650F1BDB79798C4218D13B
:1095100097F90210B14214DB15D109E0FF2B10D0EE
:1095200079798C4209D197F90210B14209DB0AD14D
:10953000797881428041C00F06E0641AE4B2812C40
:1095400001DA012000E00020BDE8F0810000000009
:10955000F87801202DE9F84F96B0824604A8102132
:1095600010F08AFB0DF10A0305220EA9504610F0F7
:1095700055FB00250646A846022E00F0A081504665
:1095800009F0D0FD0746B81D0BF017FC0A9007F153
:1095900009000BF012FCADF8080007F10B000BF00E
:1095A0000CFC8146DFF8C8080168012E11F80A306A
:1095B00001936BD1012009900026062171430EA86A
:1095C00047183A88022A5DD1F978504600F07CF9B4
:1095D0001B2857D1F9785046C91C00F076F9192894
:1095E00050D1F9785046091D00F06FF94A2849D149
:1095F0000524F97850466118491C00F066F9F9789D
:109600004FEA002B5046611800F05FF9584480B2D1
:1096100000F03F0B932818D1F87800210091201812
:1096200000F102090F235FFA89F2514604A809F0FC
:109630008CFE09F10F0100F04BF9054609F111000C
:10964000C1B200F046F9814616E0412814D1F978FC
:109650005046611800F038F9DFF834190A78801A9A
:10966000A0F14D0897480068007B032812BF04282A
:109670004FFA88F010F010FB5C443979A41CE0B27A
:109680008842B6D3761C052E0ADA96E7099507F1CB
:109690000D000BF092FB054604A95046FEF7B0FF03
:1096A000E80B8DF80B0002AB0622514608200EF0A5
:1096B0002AF9002800F0038104AEB0787778C0F36F
:1096C000C3010891019900F0030007F00F0720295A
:1096D000ACBFB47B00248DF80C0000F001F94A7B8C
:1096E000022A13D107F0CDFDBDF8081081420DD13B
:1096F0000BA800F0D6FB0198202805DB00F0ECF861
:109700000BA8FCF770FF08B10CF0E8FB0A98B0F565
:10971000004F11BFB0F5624F25F4404540F6FF7091
:10972000854254D101992029C0F2C9800022082124
:109730000DF1130000F0FFFC002848D1DFF85808B5
:10974000017801293FD19DF80B00BDF80830019741
:10975000009027220FF6740103200CF002FCDFF8C2
:109760003C180A78BDF808109DF80B008DF82A20E7
:10977000ADF828108DF82B008DF834708DF8354039
:1097800000F0AAF80BA8FCF7E0FE01F03EFCDFF8C1
:109790001058286890B10DF1050006F02FFF01A8C0
:1097A00006F02EFF9DF80C009DF904209DF8051091
:1097B0002D6800904B460AA8A84702E00AA803F0CB
:1097C0006FFB01F028FCDFF8F055A87D002876D16A
:1097D00000F0C3FC002872D0012068750022082127
:1097E00005F10C0000F0A7FC20B1BDF80800698964
:1097F000884207D000F070F805F10C00FCF7F3FE8A
:1098000000285CD19DF80B00DFF8B8B030B9DBF868
:109810000010487B312818BF332850D10121384629
:10982000FEF78AFE00284AD09DF81000002802BFEB
:1098300070780009022842D104A8FEF712FF38B957
:10984000DBF80000017B022939D04088484536D139
:1098500004A8FEF706FF01469DF90C209DF80B00B9
:109860002346FFF70BFE50B3FEF7BDFE85F800A0C0
:10987000504609F0BEFCDFF81C070178DFF810271E
:109880006970089910782F710E29A870D4BF481CF0
:109890000F20E8706C71BDF80800A5F81A9085F8E3
:1098A000078068819DF80C0000F016F8287205F119
:1098B0000C00FCF74AFE099901B10121A97117B00A
:1098C000BDE8F08FB0780120891CC9B209F042BE12
:1098D000C9B2504609F0F1BE08220DF113017047DC
:1098E000DFF8A006016870472DE9FF410646DFF862
:1098F000C844012088461746A07504F06BFF002875
:109900001ED1012E01D030001BD1009743462622E4
:10991000BFA103200CF025FB01F077FBDFF88406E4
:1099200004683CB1012E08BF06F0DEFC3946404613
:10993000A04703E03946404603F0CFFA01F06BFB45
:10994000D5E0DFF840562868407B23280DD100F091
:1099500064FB044600F065FB214602F0BAFD0220DC
:1099600000F067FB0BF099FAC1E0002FFCD1212831
:109970001CBF0428532802D105F0F4F9B7E000F029
:10998000ECFB002800F093802678FF2E05D1607D47
:1099900000280CBFAB2094209EE02868007B0328A1
:1099A00016BF0428012100212079FEF7C5FD08B962
:1099B000982091E010F03FFE052130460EF005F8AA
:1099C0002968DFF8E465887301F0E1FA207DE8B9E1
:1099D0002968087B6189325C608B0FF0BAFD002832
:1099E0005CD194202076022001F00AFB2968AC4863
:1099F0004A7B012A05D0312A12BF332A097B042968
:109A00004ED1C82103F048FC03204EE007F031FCA2
:109A10008046608B002100F055FA00F09EFB68B193
:109A20005FEA080003D04FF6F871884506DB0CF0BA
:109A3000D0FA296880464A889042F8D0404607F01C
:109A40001CFC207809210DF0A5FF07F01EFC062064
:109A50008DF8080028680223017B725C00210191C7
:109A60008DF809200091408802AA01210EF005FA24
:109A70000646FF2812D02868418830460DF0ECFFDA
:109A8000207D02281CBF3046FFF758F900F040F84F
:109A90000746304609F0BBFB002FA2D194201BE003
:109AA0004FF4167103F0F8FB0020E0751FE0296801
:109AB000487B132816D100F035F9BDF8000007F0F7
:109AC000E4FB00F04EF92868017B032918BF042944
:109AD00005D1332141739620FEF766FE07E0FEF7BD
:109AE00040FE04E0042E04BF404611F0B4FB4FF4E6
:109AF00000600DF074FB10B911F059FD08B10AF0C7
:109B000086F8BDE8FF810000F8560120A879012001
:109B100000220021304611F0EABC2DE9FF41DFF8B8
:109B200064148046DFF86404448800208DF8000047
:109B3000086804F00105260602780DF10300760E90
:109B400042F020028DF8012000F0ABF90322FF2142
:109B50000DF10B00FCF740FD0CF0A1F88DF80E00A4
:109B6000C2480078DFF844140A78DFF844341978E2
:109B7000C00040F00400C0B22706240606F001062B
:109B80007F0F240F8A4207F0010704F0010438BF59
:109B900040F080002E4306D02F4218BF40F0010055
:109BA0000CB140F002008DF802000F2269464046D9
:109BB00009F03DFC401E8041C00F04B0BDE8F081BB
:109BC00038B50446DFF8BC532868017BA14203D0B6
:109BD0000473204601F076FA04F007FD40B11CB989
:109BE000002004F0FEFC0EE0012004F0FAFC00E08E
:109BF0001CB12868017B042905D101F0D5F9FF28A3
:109C000008BF012000D00020BDE832400AF0CEBAE3
:109C10004242420038B505460C46E07A10F098FA08
:109C2000FF2801D18A2032BD94F90A0000F0A1FA80
